{
  "contractName": "EtherWallet",
  "abi": [
    {
      "inputs": [],
      "stateMutability": "nonpayable",
      "type": "constructor"
    },
    {
      "inputs": [],
      "name": "owner",
      "outputs": [
        {
          "internalType": "address payable",
          "name": "",
          "type": "address"
        }
      ],
      "stateMutability": "view",
      "type": "function"
    },
    {
      "stateMutability": "payable",
      "type": "receive"
    },
    {
      "inputs": [
        {
          "internalType": "address payable",
          "name": "newOwner",
          "type": "address"
        }
      ],
      "name": "setOwner",
      "outputs": [],
      "stateMutability": "nonpayable",
      "type": "function"
    },
    {
      "inputs": [],
      "name": "getBalance",
      "outputs": [
        {
          "internalType": "uint256",
          "name": "",
          "type": "uint256"
        }
      ],
      "stateMutability": "view",
      "type": "function"
    },
    {
      "inputs": [],
      "name": "getContractHistory",
      "outputs": [
        {
          "internalType": "bytes32[]",
          "name": "",
          "type": "bytes32[]"
        }
      ],
      "stateMutability": "view",
      "type": "function"
    }
  ],
  "bytecode": "0x608060405234801561000f575f80fd5b50335f806101000a81548173ffffffffffffffffffffffffffffffffffffffff021916908373ffffffffffffffffffffffffffffffffffffffff1602179055506107888061005c5f395ff3fe608060405260043610610042575f3560e01c80630ea9a7471461009557806312065fe0146100bf57806313af4035146100e95780638da5cb5b1461011157610091565b36610091575f344260405160200161005b929190610426565b60405160208183030381529060405280519060200120905061008781600161013b90919063ffffffff16565b61008f610166565b005b5f80fd5b3480156100a0575f80fd5b506100a961029a565b6040516100b69190610511565b60405180910390f35b3480156100ca575f80fd5b506100d36102ab565b6040516100e09190610540565b60405180910390f35b3480156100f4575f80fd5b5061010f600480360381019061010a91906105b7565b6102b2565b005b34801561011c575f80fd5b50610125610381565b60405161013291906105f1565b60405180910390f35b815f0181908060018154018082558091505060019003905f5260205f20015f90919091909150555050565b5f47116101a8576040517f08c379a000000000000000000000000000000000000000000000000000000000815260040161019f90610664565b60405180910390fd5b5f73ffffffffffffffffffffffffffffffffffffffff165f8054906101000a900473ffffffffffffffffffffffffffffffffffffffff1673ffffffffffffffffffffffffffffffffffffffff1603610235576040517f08c379a000000000000000000000000000000000000000000000000000000000815260040161022c906106cc565b60405180910390fd5b5f8054906101000a900473ffffffffffffffffffffffffffffffffffffffff1673ffffffffffffffffffffffffffffffffffffffff166108fc4790811502906040515f60405180830381858888f19350505050158015610297573d5f803e3d5ffd5b50565b60606102a660016103a4565b905090565b5f47905090565b5f8054906101000a900473ffffffffffffffffffffffffffffffffffffffff1673ffffffffffffffffffffffffffffffffffffffff163373ffffffffffffffffffffffffffffffffffffffff161461033f576040517f08c379a000000000000000000000000000000000000000000000000000000000815260040161033690610734565b60405180910390fd5b805f806101000a81548173ffffffffffffffffffffffffffffffffffffffff021916908373ffffffffffffffffffffffffffffffffffffffff16021790555050565b5f8054906101000a900473ffffffffffffffffffffffffffffffffffffffff1681565b6060815f018054806020026020016040519081016040528092919081815260200182805480156103f157602002820191905f5260205f20905b8154815260200190600101908083116103dd575b50505050509050919050565b5f819050919050565b5f819050919050565b61042061041b826103fd565b610406565b82525050565b5f610431828561040f565b602082019150610441828461040f565b6020820191508190509392505050565b5f81519050919050565b5f82825260208201905092915050565b5f819050602082019050919050565b5f819050919050565b61048c8161047a565b82525050565b5f61049d8383610483565b60208301905092915050565b5f602082019050919050565b5f6104bf82610451565b6104c9818561045b565b93506104d48361046b565b805f5b838110156105045781516104eb8882610492565b97506104f6836104a9565b9250506001810190506104d7565b5085935050505092915050565b5f6020820190508181035f83015261052981846104b5565b905092915050565b61053a816103fd565b82525050565b5f6020820190506105535f830184610531565b92915050565b5f80fd5b5f73ffffffffffffffffffffffffffffffffffffffff82169050919050565b5f6105868261055d565b9050919050565b6105968161057c565b81146105a0575f80fd5b50565b5f813590506105b18161058d565b92915050565b5f602082840312156105cc576105cb610559565b5b5f6105d9848285016105a3565b91505092915050565b6105eb8161057c565b82525050565b5f6020820190506106045f8301846105e2565b92915050565b5f82825260208201905092915050565b7f4b686f6e6720636f20736f2064752064652072757400000000000000000000005f82015250565b5f61064e60158361060a565b91506106598261061a565b602082019050919050565b5f6020820190508181035f83015261067b81610642565b9050919050565b7f4368756120636f206e67756f69206e68616e2064756f63206368692064696e685f82015250565b5f6106b660208361060a565b91506106c182610682565b602082019050919050565b5f6020820190508181035f8301526106e3816106aa565b9050919050565b7f43757400000000000000000000000000000000000000000000000000000000005f82015250565b5f61071e60038361060a565b9150610729826106ea565b602082019050919050565b5f6020820190508181035f83015261074b81610712565b905091905056fea2646970667358221220c210eb51c5c372654cdaf6cc998cc5c25dc4d9adf73045972adbfcc1aac52c4c64736f6c63430008140033",
  "immutableReferences": {},
  "source": "// SPDX-License-Identifier: MIT\r\npragma solidity ^0.8.0;\r\n\r\nimport \"./test.sol\";\r\n\r\ncontract EtherWallet {\r\n    using DynamicArray for DynamicArray.Bytes32Array;\r\n\r\n    address payable public owner;\r\n    DynamicArray.Bytes32Array private contractHistory;\r\n\r\n    constructor() {\r\n        owner = payable(msg.sender);\r\n    }\r\n\r\n    receive() external payable {\r\n        bytes32 dataHash = keccak256(abi.encodePacked(msg.value, block.timestamp));\r\n        contractHistory.push(dataHash);\r\n        autoWithdraw();\r\n    }\r\n\r\n    function autoWithdraw() private {\r\n        require(address(this).balance > 0, \"Khong co so du de rut\");\r\n        require(owner != address(0), \"Chua co nguoi nhan duoc chi dinh\");\r\n\r\n        owner.transfer(address(this).balance);\r\n    }\r\n\r\n    function setOwner(address payable newOwner) external {\r\n        require(msg.sender == owner, \"Cut\");\r\n\r\n        owner = newOwner;\r\n    }\r\n\r\n    function getBalance() external view returns (uint256) {\r\n        return address(this).balance;\r\n    }\r\n\r\n    function getContractHistory() external view returns (bytes32[] memory) {\r\n        return contractHistory.toArray();\r\n    }\r\n}\r\n",
  "sourcePath": "c:\\Users\\Asus\\BESolidity\\src\\contracts\\contrac.sol",
  "compiler": {
    "name": "solc",
    "version": "0.8.20+commit.a1b79de6.Emscripten.clang"
  },
  "schemaVersion": "3.4.14",
  "updatedAt": "2023-06-12T08:02:22.001Z",
  "devdoc": {
    "kind": "dev",
    "methods": {},
    "version": 1
  },
  "userdoc": {
    "kind": "user",
    "methods": {},
    "version": 1
  }
}