{
  "contractName": "EtherWallet",
  "abi": [
    {
      "inputs": [],
      "stateMutability": "nonpayable",
      "type": "constructor"
    },
    {
      "inputs": [],
      "name": "chapter",
      "outputs": [
        {
          "internalType": "uint256",
          "name": "",
          "type": "uint256"
        }
      ],
      "stateMutability": "view",
      "type": "function"
    },
    {
      "inputs": [],
      "name": "owner",
      "outputs": [
        {
          "internalType": "address payable",
          "name": "",
          "type": "address"
        }
      ],
      "stateMutability": "view",
      "type": "function"
    },
    {
      "inputs": [],
      "name": "points_sum",
      "outputs": [
        {
          "internalType": "uint256",
          "name": "",
          "type": "uint256"
        }
      ],
      "stateMutability": "view",
      "type": "function"
    },
    {
      "stateMutability": "payable",
      "type": "receive"
    },
    {
      "inputs": [],
      "name": "autoWithdraw",
      "outputs": [],
      "stateMutability": "nonpayable",
      "type": "function"
    },
    {
      "inputs": [],
      "name": "getPoints",
      "outputs": [
        {
          "internalType": "uint256",
          "name": "",
          "type": "uint256"
        }
      ],
      "stateMutability": "view",
      "type": "function"
    },
    {
      "inputs": [],
      "name": "unlockChapter",
      "outputs": [],
      "stateMutability": "nonpayable",
      "type": "function"
    },
    {
      "inputs": [],
      "name": "generateRandomAndSum",
      "outputs": [
        {
          "internalType": "uint256",
          "name": "",
          "type": "uint256"
        }
      ],
      "stateMutability": "view",
      "type": "function"
    },
    {
      "inputs": [],
      "name": "resetSumPoints",
      "outputs": [],
      "stateMutability": "nonpayable",
      "type": "function"
    },
    {
      "inputs": [],
      "name": "getBalance",
      "outputs": [
        {
          "internalType": "uint256",
          "name": "",
          "type": "uint256"
        }
      ],
      "stateMutability": "view",
      "type": "function"
    },
    {
      "inputs": [],
      "name": "getContractHistory",
      "outputs": [
        {
          "internalType": "bytes32[]",
          "name": "",
          "type": "bytes32[]"
        }
      ],
      "stateMutability": "view",
      "type": "function"
    }
  ],
  "bytecode": "0x608060405234801561000f575f80fd5b50335f806101000a81548173ffffffffffffffffffffffffffffffffffffffff021916908373ffffffffffffffffffffffffffffffffffffffff160217905550610b0e8061005c5f395ff3fe608060405260043610610094575f3560e01c80635ebf845e116100585780635ebf845e146101a55780638da5cb5b146101cf578063a2966b78146101f9578063d439b25a1461020f578063f4b7095b14610225576100e3565b80630ea9a747146100e757806312065fe0146101115780633394714a1461013b5780634e4990fe14610151578063590229b71461017b576100e3565b366100e3575f34426040516020016100ad929190610601565b6040516020818303038152906040528051906020012090506100d981600161024f90919063ffffffff16565b6100e161027a565b005b5f80fd5b3480156100f2575f80fd5b506100fb610443565b60405161010891906106ec565b60405180910390f35b34801561011c575f80fd5b50610125610454565b604051610132919061071b565b60405180910390f35b348015610146575f80fd5b5061014f61045b565b005b34801561015c575f80fd5b5061016561048b565b604051610172919061071b565b60405180910390f35b348015610186575f80fd5b5061018f61053e565b60405161019c919061071b565b60405180910390f35b3480156101b0575f80fd5b506101b9610544565b6040516101c6919061071b565b60405180910390f35b3480156101da575f80fd5b506101e361054a565b6040516101f09190610773565b60405180910390f35b348015610204575f80fd5b5061020d61027a565b005b34801561021a575f80fd5b5061022361056d565b005b348015610230575f80fd5b50610239610576565b604051610246919061071b565b60405180910390f35b815f0181908060018154018082558091505060019003905f5260205f20015f90919091909150555050565b5f47116102bc576040517f08c379a00000000000000000000000000000000000000000000000000000000081526004016102b3906107e6565b60405180910390fd5b5f73ffffffffffffffffffffffffffffffffffffffff165f8054906101000a900473ffffffffffffffffffffffffffffffffffffffff1673ffffffffffffffffffffffffffffffffffffffff1603610349576040517f08c379a00000000000000000000000000000000000000000000000000000000081526004016103409061084e565b60405180910390fd5b5f4790505f670de0b6b3a76400006005836103649190610899565b61036e9190610907565b905060058110156103b4576040517f08c379a00000000000000000000000000000000000000000000000000000000081526004016103ab90610981565b60405180910390fd5b5f81816103c1919061099f565b90505f8054906101000a900473ffffffffffffffffffffffffffffffffffffffff1673ffffffffffffffffffffffffffffffffffffffff166108fc8490811502906040515f60405180830381858888f19350505050158015610425573d5f803e3d5ffd5b508060025f828254610437919061099f565b92505081905550505050565b606061044f600161057f565b905090565b5f47905090565b600560025461046a91906109d2565b600281905550600160035f828254610482919061099f565b92505081905550565b5f6001600354101561049b575f80fd5b5f80605090505f5b600354811015610535575f6001436104bb91906109d2565b4042836040516020016104d093929190610a25565b604051602081830303815290604052805190602001205f1c90505f60016064836104fa9190610a61565b610504919061099f565b905083811161051257600a90505b808561051e919061099f565b94505050808061052d90610a91565b9150506104a3565b50819250505090565b60035481565b60025481565b5f8054906101000a900473ffffffffffffffffffffffffffffffffffffffff1681565b5f600281905550565b5f600254905090565b6060815f018054806020026020016040519081016040528092919081815260200182805480156105cc57602002820191905f5260205f20905b8154815260200190600101908083116105b8575b50505050509050919050565b5f819050919050565b5f819050919050565b6105fb6105f6826105d8565b6105e1565b82525050565b5f61060c82856105ea565b60208201915061061c82846105ea565b6020820191508190509392505050565b5f81519050919050565b5f82825260208201905092915050565b5f819050602082019050919050565b5f819050919050565b61066781610655565b82525050565b5f610678838361065e565b60208301905092915050565b5f602082019050919050565b5f61069a8261062c565b6106a48185610636565b93506106af83610646565b805f5b838110156106df5781516106c6888261066d565b97506106d183610684565b9250506001810190506106b2565b5085935050505092915050565b5f6020820190508181035f8301526107048184610690565b905092915050565b610715816105d8565b82525050565b5f60208201905061072e5f83018461070c565b92915050565b5f73ffffffffffffffffffffffffffffffffffffffff82169050919050565b5f61075d82610734565b9050919050565b61076d81610753565b82525050565b5f6020820190506107865f830184610764565b92915050565b5f82825260208201905092915050565b7f4b686f6e6720636f20736f2064752064652072757400000000000000000000005f82015250565b5f6107d060158361078c565b91506107db8261079c565b602082019050919050565b5f6020820190508181035f8301526107fd816107c4565b9050919050565b7f4368756120636f206e67756f69206e68616e2064756f63206368692064696e685f82015250565b5f61083860208361078c565b915061084382610804565b602082019050919050565b5f6020820190508181035f8301526108658161082c565b9050919050565b7f4e487b71000000000000000000000000000000000000000000000000000000005f52601160045260245ffd5b5f6108a3826105d8565b91506108ae836105d8565b92508282026108bc816105d8565b915082820484148315176108d3576108d261086c565b5b5092915050565b7f4e487b71000000000000000000000000000000000000000000000000000000005f52601260045260245ffd5b5f610911826105d8565b915061091c836105d8565b92508261092c5761092b6108da565b5b828204905092915050565b7f7175716e207165750000000000000000000000000000000000000000000000005f82015250565b5f61096b60088361078c565b915061097682610937565b602082019050919050565b5f6020820190508181035f8301526109988161095f565b9050919050565b5f6109a9826105d8565b91506109b4836105d8565b92508282019050808211156109cc576109cb61086c565b5b92915050565b5f6109dc826105d8565b91506109e7836105d8565b92508282039050818111156109ff576109fe61086c565b5b92915050565b5f819050919050565b610a1f610a1a82610655565b610a05565b82525050565b5f610a308286610a0e565b602082019150610a4082856105ea565b602082019150610a5082846105ea565b602082019150819050949350505050565b5f610a6b826105d8565b9150610a76836105d8565b925082610a8657610a856108da565b5b828206905092915050565b5f610a9b826105d8565b91507fffffffffffffffffffffffffffffffffffffffffffffffffffffffffffffffff8203610acd57610acc61086c565b5b60018201905091905056fea2646970667358221220af881aa79ba7f2a599197269259a9e90c2503906b9d001087d99da5127b656ed64736f6c63430008140033",
  "immutableReferences": {},
  "source": "// SPDX-License-Identifier: MIT\r\n\r\npragma solidity ^0.8.0;\r\n\r\nimport \"./test.sol\";\r\n\r\ncontract EtherWallet {\r\n    using DynamicArray for DynamicArray.Bytes32Array;\r\n\r\n    address payable public owner;\r\nDynamicArray.Bytes32Array private contractHistory;\r\nuint256 public points_sum;\r\nuint public chapter;\r\n\r\n\r\nconstructor() {\r\n    owner = payable(msg.sender);\r\n}\r\n\r\nreceive() external payable {\r\n    bytes32 dataHash = keccak256(abi.encodePacked(msg.value, block.timestamp));\r\n    contractHistory.push(dataHash);\r\n    autoWithdraw();\r\n}\r\n\r\nfunction autoWithdraw() public {\r\n    require(address(this).balance > 0, \"Khong co so du de rut\");\r\n    require(owner != address(0), \"Chua co nguoi nhan duoc chi dinh\");\r\n\r\n    uint256 amount = address(this).balance;\r\n    uint256 convertedPoints = amount * 5/1000000000000000000; // Quy i s Ether thnh s im\r\n    require(convertedPoints>=5, \"quqn qeu\");\r\n    uint256 points = 0;\r\n    points += convertedPoints; // Cng s im  quy i vo bin points\r\n    owner.transfer(amount); // Chuyn s Ether cho ngi nhn\r\n    points_sum += points;\r\n}\r\n\r\nfunction getPoints()public view returns (uint256){\r\n    return points_sum;\r\n\r\n}\r\n\r\nfunction unlockChapter()external {\r\n    points_sum = points_sum -  5;\r\n    chapter +=1;\r\n}\r\n\r\nfunction generateRandomAndSum() external view returns (uint) {\r\n        require(chapter >= 1);\r\n\r\n        uint sum = 0;\r\n        uint threshold = 80; // Ngng  gn gi tr l 10\r\n\r\n        for (uint i = 0; i < chapter; i++) {\r\n            uint randomNumber = uint(keccak256(abi.encodePacked(blockhash(block.number - 1), block.timestamp, i)));\r\n            uint randomInRange = (randomNumber % 100) + 1;\r\n            \r\n            if (randomInRange <= threshold) {\r\n                randomInRange = 10;\r\n            }\r\n            \r\n            sum += randomInRange;\r\n        }\r\n\r\n        return sum;\r\n    }\r\n\r\nfunction resetSumPoints()external {\r\n    points_sum = 0;    \r\n}\r\n\r\n\r\n\r\n\r\n\r\nfunction getBalance() external view returns (uint256) {\r\n    return address(this).balance;\r\n}\r\n\r\nfunction getContractHistory() external view returns (bytes32[] memory) {\r\n    return contractHistory.toArray();\r\n}\r\n}",
  "sourcePath": "c:\\Users\\Asus\\BESolidity\\src\\contracts\\contrac.sol",
  "compiler": {
    "name": "solc",
    "version": "0.8.20+commit.a1b79de6.Emscripten.clang"
  },
  "schemaVersion": "3.4.14",
  "updatedAt": "2023-06-14T08:09:36.191Z",
  "devdoc": {
    "kind": "dev",
    "methods": {},
    "version": 1
  },
  "userdoc": {
    "kind": "user",
    "methods": {},
    "version": 1
  }
}